{
	"data": {
		"bytecode": {
			"linkReferences": {},
			"object": "608060405234801561001057600080fd5b50336000806101000a81548173ffffffffffffffffffffffffffffffffffffffff021916908373ffffffffffffffffffffffffffffffffffffffff1602179055506064600160003073ffffffffffffffffffffffffffffffffffffffff1673ffffffffffffffffffffffffffffffffffffffff16815260200190815260200160002060006101000a81548160ff021916908360ff160217905550610e04806100b96000396000f3fe6080604052600436106100705760003560e01c80635cfe64d91161004e5780635cfe64d9146100f45780638da5cb5b1461011f5780639a020d8a1461014a578063d635e3691461018757610070565b806312065fe01461007557806316d68974146100a05780632c858e36146100c9575b600080fd5b34801561008157600080fd5b5061008a6101a3565b6040516100979190610808565b60405180910390f35b3480156100ac57600080fd5b506100c760048036038101906100c29190610861565b610271565b005b3480156100d557600080fd5b506100de61044a565b6040516100eb919061089d565b60405180910390f35b34801561010057600080fd5b5061010961049e565b6040516101169190610808565b60405180910390f35b34801561012b57600080fd5b506101346104ae565b60405161014191906108f9565b60405180910390f35b34801561015657600080fd5b50610171600480360381019061016c9190610940565b6104d2565b60405161017e919061089d565b60405180910390f35b6101a1600480360381019061019c9190610861565b6104f2565b005b60008060009054906101000a900473ffffffffffffffffffffffffffffffffffffffff1673ffffffffffffffffffffffffffffffffffffffff163373ffffffffffffffffffffffffffffffffffffffff1614610234576040517f08c379a000000000000000000000000000000000000000000000000000000000815260040161022b906109ca565b60405180910390fd5b60008054906101000a900473ffffffffffffffffffffffffffffffffffffffff1673ffffffffffffffffffffffffffffffffffffffff1631905090565b60008054906101000a900473ffffffffffffffffffffffffffffffffffffffff1673ffffffffffffffffffffffffffffffffffffffff163373ffffffffffffffffffffffffffffffffffffffff16146102ff576040517f08c379a00000000000000000000000000000000000000000000000000000000081526004016102f690610a5c565b60405180910390fd5b60ff81600160003073ffffffffffffffffffffffffffffffffffffffff1673ffffffffffffffffffffffffffffffffffffffff16815260200190815260200160002060009054906101000a900460ff166103599190610aab565b60ff16111561039d576040517f08c379a000000000000000000000000000000000000000000000000000000000815260040161039490610b52565b60405180910390fd5b80600160003073ffffffffffffffffffffffffffffffffffffffff1673ffffffffffffffffffffffffffffffffffffffff16815260200190815260200160002060008282829054906101000a900460ff166103f89190610aab565b92506101000a81548160ff021916908360ff1602179055507fe2093cb4648900d044961941e97075929042d6eb09a795f2b4ac2d4ae70b6ec88160405161043f919061089d565b60405180910390a150565b6000600160003073ffffffffffffffffffffffffffffffffffffffff1673ffffffffffffffffffffffffffffffffffffffff16815260200190815260200160002060009054906101000a900460ff16905090565b600067016345785d8a0000905090565b60008054906101000a900473ffffffffffffffffffffffffffffffffffffffff1681565b60016020528060005260406000206000915054906101000a900460ff1681565b67016345785d8a00008160ff166105099190610b86565b67ffffffffffffffff16341015610555576040517f08c379a000000000000000000000000000000000000000000000000000000000815260040161054c90610c35565b60405180910390fd5b8060ff16600160003073ffffffffffffffffffffffffffffffffffffffff1673ffffffffffffffffffffffffffffffffffffffff16815260200190815260200160002060009054906101000a900460ff1660ff1610156105ea576040517f08c379a00000000000000000000000000000000000000000000000000000000081526004016105e190610cc7565b60405180910390fd5b80600160003073ffffffffffffffffffffffffffffffffffffffff1673ffffffffffffffffffffffffffffffffffffffff16815260200190815260200160002060008282829054906101000a900460ff166106459190610ce7565b92506101000a81548160ff021916908360ff16021790555080600160003373ffffffffffffffffffffffffffffffffffffffff1673ffffffffffffffffffffffffffffffffffffffff16815260200190815260200160002060008282829054906101000a900460ff166106b89190610aab565b92506101000a81548160ff021916908360ff16021790555060008060009054906101000a900473ffffffffffffffffffffffffffffffffffffffff1673ffffffffffffffffffffffffffffffffffffffff163460405161071790610d4d565b60006040518083038185875af1925050503d8060008114610754576040519150601f19603f3d011682016040523d82523d6000602084013e610759565b606091505b505090508061079d576040517f08c379a000000000000000000000000000000000000000000000000000000000815260040161079490610dae565b60405180910390fd5b3373ffffffffffffffffffffffffffffffffffffffff167faa4e95ebd619989e70493ca97b7346a4382c7a636fc4381f82bd1c9985ab3b93836040516107e3919061089d565b60405180910390a25050565b6000819050919050565b610802816107ef565b82525050565b600060208201905061081d60008301846107f9565b92915050565b600080fd5b600060ff82169050919050565b61083e81610828565b811461084957600080fd5b50565b60008135905061085b81610835565b92915050565b60006020828403121561087757610876610823565b5b60006108858482850161084c565b91505092915050565b61089781610828565b82525050565b60006020820190506108b2600083018461088e565b92915050565b600073ffffffffffffffffffffffffffffffffffffffff82169050919050565b60006108e3826108b8565b9050919050565b6108f3816108d8565b82525050565b600060208201905061090e60008301846108ea565b92915050565b61091d816108d8565b811461092857600080fd5b50565b60008135905061093a81610914565b92915050565b60006020828403121561095657610955610823565b5b60006109648482850161092b565b91505092915050565b600082825260208201905092915050565b7f4f6e6c7920746865206f776e65722063616e206765742062616c616e63652e00600082015250565b60006109b4601f8361096d565b91506109bf8261097e565b602082019050919050565b600060208201905081810360008301526109e3816109a7565b9050919050565b7f4f6e6c7920746865206f776e65722063616e20726573746f636b20746869732060008201527f6d616368696e652e000000000000000000000000000000000000000000000000602082015250565b6000610a4660288361096d565b9150610a51826109ea565b604082019050919050565b60006020820190508181036000830152610a7581610a39565b9050919050565b7f4e487b7100000000000000000000000000000000000000000000000000000000600052601160045260246000fd5b6000610ab682610828565b9150610ac183610828565b9250828201905060ff811115610ada57610ad9610a7c565b5b92915050565b7f5468652076656e64696e67206d616368696e652063616e2073746f7265206f6e60008201527f6c792032353520646f6e7574732e000000000000000000000000000000000000602082015250565b6000610b3c602e8361096d565b9150610b4782610ae0565b604082019050919050565b60006020820190508181036000830152610b6b81610b2f565b9050919050565b600067ffffffffffffffff82169050919050565b6000610b9182610b72565b9150610b9c83610b72565b9250828202610baa81610b72565b9150808214610bbc57610bbb610a7c565b5b5092915050565b7f596f75206d75737420706179206174206c6561737420302e312065746865722060008201527f70657220646f6e75742e00000000000000000000000000000000000000000000602082015250565b6000610c1f602a8361096d565b9150610c2a82610bc3565b604082019050919050565b60006020820190508181036000830152610c4e81610c12565b9050919050565b7f546865726520617265206e6f7420656e6f75676820646f6e75747320746f207060008201527f757263686173652e000000000000000000000000000000000000000000000000602082015250565b6000610cb160288361096d565b9150610cbc82610c55565b604082019050919050565b60006020820190508181036000830152610ce081610ca4565b9050919050565b6000610cf282610828565b9150610cfd83610828565b9250828203905060ff811115610d1657610d15610a7c565b5b92915050565b600081905092915050565b50565b6000610d37600083610d1c565b9150610d4282610d27565b600082019050919050565b6000610d5882610d2a565b9150819050919050565b7f5472616e73666572206661696c65642e00000000000000000000000000000000600082015250565b6000610d9860108361096d565b9150610da382610d62565b602082019050919050565b60006020820190508181036000830152610dc781610d8b565b905091905056fea26469706673582212202f53461af97e28660b6905ee38761f208c6a1c2751e3d0e3ee263c6a03d8f21e64736f6c63430008120033",
			"opcodes": "PUSH1 0x80 PUSH1 0x40 MSTORE CALLVALUE DUP1 ISZERO PUSH2 0x10 JUMPI PUSH1 0x0 DUP1 REVERT JUMPDEST POP CALLER PUSH1 0x0 DUP1 PUSH2 0x100 EXP DUP2 SLOAD DUP2 PUSH20 0xFFFFFFFFFFFFFFFFFFFFFFFFFFFFFFFFFFFFFFFF MUL NOT AND SWAP1 DUP4 PUSH20 0xFFFFFFFFFFFFFFFFFFFFFFFFFFFFFFFFFFFFFFFF AND MUL OR SWAP1 SSTORE POP PUSH1 0x64 PUSH1 0x1 PUSH1 0x0 ADDRESS PUSH20 0xFFFFFFFFFFFFFFFFFFFFFFFFFFFFFFFFFFFFFFFF AND PUSH20 0xFFFFFFFFFFFFFFFFFFFFFFFFFFFFFFFFFFFFFFFF AND DUP2 MSTORE PUSH1 0x20 ADD SWAP1 DUP2 MSTORE PUSH1 0x20 ADD PUSH1 0x0 KECCAK256 PUSH1 0x0 PUSH2 0x100 EXP DUP2 SLOAD DUP2 PUSH1 0xFF MUL NOT AND SWAP1 DUP4 PUSH1 0xFF AND MUL OR SWAP1 SSTORE POP PUSH2 0xE04 DUP1 PUSH2 0xB9 PUSH1 0x0 CODECOPY PUSH1 0x0 RETURN INVALID PUSH1 0x80 PUSH1 0x40 MSTORE PUSH1 0x4 CALLDATASIZE LT PUSH2 0x70 JUMPI PUSH1 0x0 CALLDATALOAD PUSH1 0xE0 SHR DUP1 PUSH4 0x5CFE64D9 GT PUSH2 0x4E JUMPI DUP1 PUSH4 0x5CFE64D9 EQ PUSH2 0xF4 JUMPI DUP1 PUSH4 0x8DA5CB5B EQ PUSH2 0x11F JUMPI DUP1 PUSH4 0x9A020D8A EQ PUSH2 0x14A JUMPI DUP1 PUSH4 0xD635E369 EQ PUSH2 0x187 JUMPI PUSH2 0x70 JUMP JUMPDEST DUP1 PUSH4 0x12065FE0 EQ PUSH2 0x75 JUMPI DUP1 PUSH4 0x16D68974 EQ PUSH2 0xA0 JUMPI DUP1 PUSH4 0x2C858E36 EQ PUSH2 0xC9 JUMPI JUMPDEST PUSH1 0x0 DUP1 REVERT JUMPDEST CALLVALUE DUP1 ISZERO PUSH2 0x81 JUMPI PUSH1 0x0 DUP1 REVERT JUMPDEST POP PUSH2 0x8A PUSH2 0x1A3 JUMP JUMPDEST PUSH1 0x40 MLOAD PUSH2 0x97 SWAP2 SWAP1 PUSH2 0x808 JUMP JUMPDEST PUSH1 0x40 MLOAD DUP1 SWAP2 SUB SWAP1 RETURN JUMPDEST CALLVALUE DUP1 ISZERO PUSH2 0xAC JUMPI PUSH1 0x0 DUP1 REVERT JUMPDEST POP PUSH2 0xC7 PUSH1 0x4 DUP1 CALLDATASIZE SUB DUP2 ADD SWAP1 PUSH2 0xC2 SWAP2 SWAP1 PUSH2 0x861 JUMP JUMPDEST PUSH2 0x271 JUMP JUMPDEST STOP JUMPDEST CALLVALUE DUP1 ISZERO PUSH2 0xD5 JUMPI PUSH1 0x0 DUP1 REVERT JUMPDEST POP PUSH2 0xDE PUSH2 0x44A JUMP JUMPDEST PUSH1 0x40 MLOAD PUSH2 0xEB SWAP2 SWAP1 PUSH2 0x89D JUMP JUMPDEST PUSH1 0x40 MLOAD DUP1 SWAP2 SUB SWAP1 RETURN JUMPDEST CALLVALUE DUP1 ISZERO PUSH2 0x100 JUMPI PUSH1 0x0 DUP1 REVERT JUMPDEST POP PUSH2 0x109 PUSH2 0x49E JUMP JUMPDEST PUSH1 0x40 MLOAD PUSH2 0x116 SWAP2 SWAP1 PUSH2 0x808 JUMP JUMPDEST PUSH1 0x40 MLOAD DUP1 SWAP2 SUB SWAP1 RETURN JUMPDEST CALLVALUE DUP1 ISZERO PUSH2 0x12B JUMPI PUSH1 0x0 DUP1 REVERT JUMPDEST POP PUSH2 0x134 PUSH2 0x4AE JUMP JUMPDEST PUSH1 0x40 MLOAD PUSH2 0x141 SWAP2 SWAP1 PUSH2 0x8F9 JUMP JUMPDEST PUSH1 0x40 MLOAD DUP1 SWAP2 SUB SWAP1 RETURN JUMPDEST CALLVALUE DUP1 ISZERO PUSH2 0x156 JUMPI PUSH1 0x0 DUP1 REVERT JUMPDEST POP PUSH2 0x171 PUSH1 0x4 DUP1 CALLDATASIZE SUB DUP2 ADD SWAP1 PUSH2 0x16C SWAP2 SWAP1 PUSH2 0x940 JUMP JUMPDEST PUSH2 0x4D2 JUMP JUMPDEST PUSH1 0x40 MLOAD PUSH2 0x17E SWAP2 SWAP1 PUSH2 0x89D JUMP JUMPDEST PUSH1 0x40 MLOAD DUP1 SWAP2 SUB SWAP1 RETURN JUMPDEST PUSH2 0x1A1 PUSH1 0x4 DUP1 CALLDATASIZE SUB DUP2 ADD SWAP1 PUSH2 0x19C SWAP2 SWAP1 PUSH2 0x861 JUMP JUMPDEST PUSH2 0x4F2 JUMP JUMPDEST STOP JUMPDEST PUSH1 0x0 DUP1 PUSH1 0x0 SWAP1 SLOAD SWAP1 PUSH2 0x100 EXP SWAP1 DIV PUSH20 0xFFFFFFFFFFFFFFFFFFFFFFFFFFFFFFFFFFFFFFFF AND PUSH20 0xFFFFFFFFFFFFFFFFFFFFFFFFFFFFFFFFFFFFFFFF AND CALLER PUSH20 0xFFFFFFFFFFFFFFFFFFFFFFFFFFFFFFFFFFFFFFFF AND EQ PUSH2 0x234 JUMPI PUSH1 0x40 MLOAD PUSH32 0x8C379A000000000000000000000000000000000000000000000000000000000 DUP2 MSTORE PUSH1 0x4 ADD PUSH2 0x22B SWAP1 PUSH2 0x9CA JUMP JUMPDEST PUSH1 0x40 MLOAD DUP1 SWAP2 SUB SWAP1 REVERT JUMPDEST PUSH1 0x0 DUP1 SLOAD SWAP1 PUSH2 0x100 EXP SWAP1 DIV PUSH20 0xFFFFFFFFFFFFFFFFFFFFFFFFFFFFFFFFFFFFFFFF AND PUSH20 0xFFFFFFFFFFFFFFFFFFFFFFFFFFFFFFFFFFFFFFFF AND BALANCE SWAP1 POP SWAP1 JUMP JUMPDEST PUSH1 0x0 DUP1 SLOAD SWAP1 PUSH2 0x100 EXP SWAP1 DIV PUSH20 0xFFFFFFFFFFFFFFFFFFFFFFFFFFFFFFFFFFFFFFFF AND PUSH20 0xFFFFFFFFFFFFFFFFFFFFFFFFFFFFFFFFFFFFFFFF AND CALLER PUSH20 0xFFFFFFFFFFFFFFFFFFFFFFFFFFFFFFFFFFFFFFFF AND EQ PUSH2 0x2FF JUMPI PUSH1 0x40 MLOAD PUSH32 0x8C379A000000000000000000000000000000000000000000000000000000000 DUP2 MSTORE PUSH1 0x4 ADD PUSH2 0x2F6 SWAP1 PUSH2 0xA5C JUMP JUMPDEST PUSH1 0x40 MLOAD DUP1 SWAP2 SUB SWAP1 REVERT JUMPDEST PUSH1 0xFF DUP2 PUSH1 0x1 PUSH1 0x0 ADDRESS PUSH20 0xFFFFFFFFFFFFFFFFFFFFFFFFFFFFFFFFFFFFFFFF AND PUSH20 0xFFFFFFFFFFFFFFFFFFFFFFFFFFFFFFFFFFFFFFFF AND DUP2 MSTORE PUSH1 0x20 ADD SWAP1 DUP2 MSTORE PUSH1 0x20 ADD PUSH1 0x0 KECCAK256 PUSH1 0x0 SWAP1 SLOAD SWAP1 PUSH2 0x100 EXP SWAP1 DIV PUSH1 0xFF AND PUSH2 0x359 SWAP2 SWAP1 PUSH2 0xAAB JUMP JUMPDEST PUSH1 0xFF AND GT ISZERO PUSH2 0x39D JUMPI PUSH1 0x40 MLOAD PUSH32 0x8C379A000000000000000000000000000000000000000000000000000000000 DUP2 MSTORE PUSH1 0x4 ADD PUSH2 0x394 SWAP1 PUSH2 0xB52 JUMP JUMPDEST PUSH1 0x40 MLOAD DUP1 SWAP2 SUB SWAP1 REVERT JUMPDEST DUP1 PUSH1 0x1 PUSH1 0x0 ADDRESS PUSH20 0xFFFFFFFFFFFFFFFFFFFFFFFFFFFFFFFFFFFFFFFF AND PUSH20 0xFFFFFFFFFFFFFFFFFFFFFFFFFFFFFFFFFFFFFFFF AND DUP2 MSTORE PUSH1 0x20 ADD SWAP1 DUP2 MSTORE PUSH1 0x20 ADD PUSH1 0x0 KECCAK256 PUSH1 0x0 DUP3 DUP3 DUP3 SWAP1 SLOAD SWAP1 PUSH2 0x100 EXP SWAP1 DIV PUSH1 0xFF AND PUSH2 0x3F8 SWAP2 SWAP1 PUSH2 0xAAB JUMP JUMPDEST SWAP3 POP PUSH2 0x100 EXP DUP2 SLOAD DUP2 PUSH1 0xFF MUL NOT AND SWAP1 DUP4 PUSH1 0xFF AND MUL OR SWAP1 SSTORE POP PUSH32 0xE2093CB4648900D044961941E97075929042D6EB09A795F2B4AC2D4AE70B6EC8 DUP2 PUSH1 0x40 MLOAD PUSH2 0x43F SWAP2 SWAP1 PUSH2 0x89D JUMP JUMPDEST PUSH1 0x40 MLOAD DUP1 SWAP2 SUB SWAP1 LOG1 POP JUMP JUMPDEST PUSH1 0x0 PUSH1 0x1 PUSH1 0x0 ADDRESS PUSH20 0xFFFFFFFFFFFFFFFFFFFFFFFFFFFFFFFFFFFFFFFF AND PUSH20 0xFFFFFFFFFFFFFFFFFFFFFFFFFFFFFFFFFFFFFFFF AND DUP2 MSTORE PUSH1 0x20 ADD SWAP1 DUP2 MSTORE PUSH1 0x20 ADD PUSH1 0x0 KECCAK256 PUSH1 0x0 SWAP1 SLOAD SWAP1 PUSH2 0x100 EXP SWAP1 DIV PUSH1 0xFF AND SWAP1 POP SWAP1 JUMP JUMPDEST PUSH1 0x0 PUSH8 0x16345785D8A0000 SWAP1 POP SWAP1 JUMP JUMPDEST PUSH1 0x0 DUP1 SLOAD SWAP1 PUSH2 0x100 EXP SWAP1 DIV PUSH20 0xFFFFFFFFFFFFFFFFFFFFFFFFFFFFFFFFFFFFFFFF AND DUP2 JUMP JUMPDEST PUSH1 0x1 PUSH1 0x20 MSTORE DUP1 PUSH1 0x0 MSTORE PUSH1 0x40 PUSH1 0x0 KECCAK256 PUSH1 0x0 SWAP2 POP SLOAD SWAP1 PUSH2 0x100 EXP SWAP1 DIV PUSH1 0xFF AND DUP2 JUMP JUMPDEST PUSH8 0x16345785D8A0000 DUP2 PUSH1 0xFF AND PUSH2 0x509 SWAP2 SWAP1 PUSH2 0xB86 JUMP JUMPDEST PUSH8 0xFFFFFFFFFFFFFFFF AND CALLVALUE LT ISZERO PUSH2 0x555 JUMPI PUSH1 0x40 MLOAD PUSH32 0x8C379A000000000000000000000000000000000000000000000000000000000 DUP2 MSTORE PUSH1 0x4 ADD PUSH2 0x54C SWAP1 PUSH2 0xC35 JUMP JUMPDEST PUSH1 0x40 MLOAD DUP1 SWAP2 SUB SWAP1 REVERT JUMPDEST DUP1 PUSH1 0xFF AND PUSH1 0x1 PUSH1 0x0 ADDRESS PUSH20 0xFFFFFFFFFFFFFFFFFFFFFFFFFFFFFFFFFFFFFFFF AND PUSH20 0xFFFFFFFFFFFFFFFFFFFFFFFFFFFFFFFFFFFFFFFF AND DUP2 MSTORE PUSH1 0x20 ADD SWAP1 DUP2 MSTORE PUSH1 0x20 ADD PUSH1 0x0 KECCAK256 PUSH1 0x0 SWAP1 SLOAD SWAP1 PUSH2 0x100 EXP SWAP1 DIV PUSH1 0xFF AND PUSH1 0xFF AND LT ISZERO PUSH2 0x5EA JUMPI PUSH1 0x40 MLOAD PUSH32 0x8C379A000000000000000000000000000000000000000000000000000000000 DUP2 MSTORE PUSH1 0x4 ADD PUSH2 0x5E1 SWAP1 PUSH2 0xCC7 JUMP JUMPDEST PUSH1 0x40 MLOAD DUP1 SWAP2 SUB SWAP1 REVERT JUMPDEST DUP1 PUSH1 0x1 PUSH1 0x0 ADDRESS PUSH20 0xFFFFFFFFFFFFFFFFFFFFFFFFFFFFFFFFFFFFFFFF AND PUSH20 0xFFFFFFFFFFFFFFFFFFFFFFFFFFFFFFFFFFFFFFFF AND DUP2 MSTORE PUSH1 0x20 ADD SWAP1 DUP2 MSTORE PUSH1 0x20 ADD PUSH1 0x0 KECCAK256 PUSH1 0x0 DUP3 DUP3 DUP3 SWAP1 SLOAD SWAP1 PUSH2 0x100 EXP SWAP1 DIV PUSH1 0xFF AND PUSH2 0x645 SWAP2 SWAP1 PUSH2 0xCE7 JUMP JUMPDEST SWAP3 POP PUSH2 0x100 EXP DUP2 SLOAD DUP2 PUSH1 0xFF MUL NOT AND SWAP1 DUP4 PUSH1 0xFF AND MUL OR SWAP1 SSTORE POP DUP1 PUSH1 0x1 PUSH1 0x0 CALLER PUSH20 0xFFFFFFFFFFFFFFFFFFFFFFFFFFFFFFFFFFFFFFFF AND PUSH20 0xFFFFFFFFFFFFFFFFFFFFFFFFFFFFFFFFFFFFFFFF AND DUP2 MSTORE PUSH1 0x20 ADD SWAP1 DUP2 MSTORE PUSH1 0x20 ADD PUSH1 0x0 KECCAK256 PUSH1 0x0 DUP3 DUP3 DUP3 SWAP1 SLOAD SWAP1 PUSH2 0x100 EXP SWAP1 DIV PUSH1 0xFF AND PUSH2 0x6B8 SWAP2 SWAP1 PUSH2 0xAAB JUMP JUMPDEST SWAP3 POP PUSH2 0x100 EXP DUP2 SLOAD DUP2 PUSH1 0xFF MUL NOT AND SWAP1 DUP4 PUSH1 0xFF AND MUL OR SWAP1 SSTORE POP PUSH1 0x0 DUP1 PUSH1 0x0 SWAP1 SLOAD SWAP1 PUSH2 0x100 EXP SWAP1 DIV PUSH20 0xFFFFFFFFFFFFFFFFFFFFFFFFFFFFFFFFFFFFFFFF AND PUSH20 0xFFFFFFFFFFFFFFFFFFFFFFFFFFFFFFFFFFFFFFFF AND CALLVALUE PUSH1 0x40 MLOAD PUSH2 0x717 SWAP1 PUSH2 0xD4D JUMP JUMPDEST PUSH1 0x0 PUSH1 0x40 MLOAD DUP1 DUP4 SUB DUP2 DUP6 DUP8 GAS CALL SWAP3 POP POP POP RETURNDATASIZE DUP1 PUSH1 0x0 DUP2 EQ PUSH2 0x754 JUMPI PUSH1 0x40 MLOAD SWAP2 POP PUSH1 0x1F NOT PUSH1 0x3F RETURNDATASIZE ADD AND DUP3 ADD PUSH1 0x40 MSTORE RETURNDATASIZE DUP3 MSTORE RETURNDATASIZE PUSH1 0x0 PUSH1 0x20 DUP5 ADD RETURNDATACOPY PUSH2 0x759 JUMP JUMPDEST PUSH1 0x60 SWAP2 POP JUMPDEST POP POP SWAP1 POP DUP1 PUSH2 0x79D JUMPI PUSH1 0x40 MLOAD PUSH32 0x8C379A000000000000000000000000000000000000000000000000000000000 DUP2 MSTORE PUSH1 0x4 ADD PUSH2 0x794 SWAP1 PUSH2 0xDAE JUMP JUMPDEST PUSH1 0x40 MLOAD DUP1 SWAP2 SUB SWAP1 REVERT JUMPDEST CALLER PUSH20 0xFFFFFFFFFFFFFFFFFFFFFFFFFFFFFFFFFFFFFFFF AND PUSH32 0xAA4E95EBD619989E70493CA97B7346A4382C7A636FC4381F82BD1C9985AB3B93 DUP4 PUSH1 0x40 MLOAD PUSH2 0x7E3 SWAP2 SWAP1 PUSH2 0x89D JUMP JUMPDEST PUSH1 0x40 MLOAD DUP1 SWAP2 SUB SWAP1 LOG2 POP POP JUMP JUMPDEST PUSH1 0x0 DUP2 SWAP1 POP SWAP2 SWAP1 POP JUMP JUMPDEST PUSH2 0x802 DUP2 PUSH2 0x7EF JUMP JUMPDEST DUP3 MSTORE POP POP JUMP JUMPDEST PUSH1 0x0 PUSH1 0x20 DUP3 ADD SWAP1 POP PUSH2 0x81D PUSH1 0x0 DUP4 ADD DUP5 PUSH2 0x7F9 JUMP JUMPDEST SWAP3 SWAP2 POP POP JUMP JUMPDEST PUSH1 0x0 DUP1 REVERT JUMPDEST PUSH1 0x0 PUSH1 0xFF DUP3 AND SWAP1 POP SWAP2 SWAP1 POP JUMP JUMPDEST PUSH2 0x83E DUP2 PUSH2 0x828 JUMP JUMPDEST DUP2 EQ PUSH2 0x849 JUMPI PUSH1 0x0 DUP1 REVERT JUMPDEST POP JUMP JUMPDEST PUSH1 0x0 DUP2 CALLDATALOAD SWAP1 POP PUSH2 0x85B DUP2 PUSH2 0x835 JUMP JUMPDEST SWAP3 SWAP2 POP POP JUMP JUMPDEST PUSH1 0x0 PUSH1 0x20 DUP3 DUP5 SUB SLT ISZERO PUSH2 0x877 JUMPI PUSH2 0x876 PUSH2 0x823 JUMP JUMPDEST JUMPDEST PUSH1 0x0 PUSH2 0x885 DUP5 DUP3 DUP6 ADD PUSH2 0x84C JUMP JUMPDEST SWAP2 POP POP SWAP3 SWAP2 POP POP JUMP JUMPDEST PUSH2 0x897 DUP2 PUSH2 0x828 JUMP JUMPDEST DUP3 MSTORE POP POP JUMP JUMPDEST PUSH1 0x0 PUSH1 0x20 DUP3 ADD SWAP1 POP PUSH2 0x8B2 PUSH1 0x0 DUP4 ADD DUP5 PUSH2 0x88E JUMP JUMPDEST SWAP3 SWAP2 POP POP JUMP JUMPDEST PUSH1 0x0 PUSH20 0xFFFFFFFFFFFFFFFFFFFFFFFFFFFFFFFFFFFFFFFF DUP3 AND SWAP1 POP SWAP2 SWAP1 POP JUMP JUMPDEST PUSH1 0x0 PUSH2 0x8E3 DUP3 PUSH2 0x8B8 JUMP JUMPDEST SWAP1 POP SWAP2 SWAP1 POP JUMP JUMPDEST PUSH2 0x8F3 DUP2 PUSH2 0x8D8 JUMP JUMPDEST DUP3 MSTORE POP POP JUMP JUMPDEST PUSH1 0x0 PUSH1 0x20 DUP3 ADD SWAP1 POP PUSH2 0x90E PUSH1 0x0 DUP4 ADD DUP5 PUSH2 0x8EA JUMP JUMPDEST SWAP3 SWAP2 POP POP JUMP JUMPDEST PUSH2 0x91D DUP2 PUSH2 0x8D8 JUMP JUMPDEST DUP2 EQ PUSH2 0x928 JUMPI PUSH1 0x0 DUP1 REVERT JUMPDEST POP JUMP JUMPDEST PUSH1 0x0 DUP2 CALLDATALOAD SWAP1 POP PUSH2 0x93A DUP2 PUSH2 0x914 JUMP JUMPDEST SWAP3 SWAP2 POP POP JUMP JUMPDEST PUSH1 0x0 PUSH1 0x20 DUP3 DUP5 SUB SLT ISZERO PUSH2 0x956 JUMPI PUSH2 0x955 PUSH2 0x823 JUMP JUMPDEST JUMPDEST PUSH1 0x0 PUSH2 0x964 DUP5 DUP3 DUP6 ADD PUSH2 0x92B JUMP JUMPDEST SWAP2 POP POP SWAP3 SWAP2 POP POP JUMP JUMPDEST PUSH1 0x0 DUP3 DUP3 MSTORE PUSH1 0x20 DUP3 ADD SWAP1 POP SWAP3 SWAP2 POP POP JUMP JUMPDEST PUSH32 0x4F6E6C7920746865206F776E65722063616E206765742062616C616E63652E00 PUSH1 0x0 DUP3 ADD MSTORE POP JUMP JUMPDEST PUSH1 0x0 PUSH2 0x9B4 PUSH1 0x1F DUP4 PUSH2 0x96D JUMP JUMPDEST SWAP2 POP PUSH2 0x9BF DUP3 PUSH2 0x97E JUMP JUMPDEST PUSH1 0x20 DUP3 ADD SWAP1 POP SWAP2 SWAP1 POP JUMP JUMPDEST PUSH1 0x0 PUSH1 0x20 DUP3 ADD SWAP1 POP DUP2 DUP2 SUB PUSH1 0x0 DUP4 ADD MSTORE PUSH2 0x9E3 DUP2 PUSH2 0x9A7 JUMP JUMPDEST SWAP1 POP SWAP2 SWAP1 POP JUMP JUMPDEST PUSH32 0x4F6E6C7920746865206F776E65722063616E20726573746F636B207468697320 PUSH1 0x0 DUP3 ADD MSTORE PUSH32 0x6D616368696E652E000000000000000000000000000000000000000000000000 PUSH1 0x20 DUP3 ADD MSTORE POP JUMP JUMPDEST PUSH1 0x0 PUSH2 0xA46 PUSH1 0x28 DUP4 PUSH2 0x96D JUMP JUMPDEST SWAP2 POP PUSH2 0xA51 DUP3 PUSH2 0x9EA JUMP JUMPDEST PUSH1 0x40 DUP3 ADD SWAP1 POP SWAP2 SWAP1 POP JUMP JUMPDEST PUSH1 0x0 PUSH1 0x20 DUP3 ADD SWAP1 POP DUP2 DUP2 SUB PUSH1 0x0 DUP4 ADD MSTORE PUSH2 0xA75 DUP2 PUSH2 0xA39 JUMP JUMPDEST SWAP1 POP SWAP2 SWAP1 POP JUMP JUMPDEST PUSH32 0x4E487B7100000000000000000000000000000000000000000000000000000000 PUSH1 0x0 MSTORE PUSH1 0x11 PUSH1 0x4 MSTORE PUSH1 0x24 PUSH1 0x0 REVERT JUMPDEST PUSH1 0x0 PUSH2 0xAB6 DUP3 PUSH2 0x828 JUMP JUMPDEST SWAP2 POP PUSH2 0xAC1 DUP4 PUSH2 0x828 JUMP JUMPDEST SWAP3 POP DUP3 DUP3 ADD SWAP1 POP PUSH1 0xFF DUP2 GT ISZERO PUSH2 0xADA JUMPI PUSH2 0xAD9 PUSH2 0xA7C JUMP JUMPDEST JUMPDEST SWAP3 SWAP2 POP POP JUMP JUMPDEST PUSH32 0x5468652076656E64696E67206D616368696E652063616E2073746F7265206F6E PUSH1 0x0 DUP3 ADD MSTORE PUSH32 0x6C792032353520646F6E7574732E000000000000000000000000000000000000 PUSH1 0x20 DUP3 ADD MSTORE POP JUMP JUMPDEST PUSH1 0x0 PUSH2 0xB3C PUSH1 0x2E DUP4 PUSH2 0x96D JUMP JUMPDEST SWAP2 POP PUSH2 0xB47 DUP3 PUSH2 0xAE0 JUMP JUMPDEST PUSH1 0x40 DUP3 ADD SWAP1 POP SWAP2 SWAP1 POP JUMP JUMPDEST PUSH1 0x0 PUSH1 0x20 DUP3 ADD SWAP1 POP DUP2 DUP2 SUB PUSH1 0x0 DUP4 ADD MSTORE PUSH2 0xB6B DUP2 PUSH2 0xB2F JUMP JUMPDEST SWAP1 POP SWAP2 SWAP1 POP JUMP JUMPDEST PUSH1 0x0 PUSH8 0xFFFFFFFFFFFFFFFF DUP3 AND SWAP1 POP SWAP2 SWAP1 POP JUMP JUMPDEST PUSH1 0x0 PUSH2 0xB91 DUP3 PUSH2 0xB72 JUMP JUMPDEST SWAP2 POP PUSH2 0xB9C DUP4 PUSH2 0xB72 JUMP JUMPDEST SWAP3 POP DUP3 DUP3 MUL PUSH2 0xBAA DUP2 PUSH2 0xB72 JUMP JUMPDEST SWAP2 POP DUP1 DUP3 EQ PUSH2 0xBBC JUMPI PUSH2 0xBBB PUSH2 0xA7C JUMP JUMPDEST JUMPDEST POP SWAP3 SWAP2 POP POP JUMP JUMPDEST PUSH32 0x596F75206D75737420706179206174206C6561737420302E3120657468657220 PUSH1 0x0 DUP3 ADD MSTORE PUSH32 0x70657220646F6E75742E00000000000000000000000000000000000000000000 PUSH1 0x20 DUP3 ADD MSTORE POP JUMP JUMPDEST PUSH1 0x0 PUSH2 0xC1F PUSH1 0x2A DUP4 PUSH2 0x96D JUMP JUMPDEST SWAP2 POP PUSH2 0xC2A DUP3 PUSH2 0xBC3 JUMP JUMPDEST PUSH1 0x40 DUP3 ADD SWAP1 POP SWAP2 SWAP1 POP JUMP JUMPDEST PUSH1 0x0 PUSH1 0x20 DUP3 ADD SWAP1 POP DUP2 DUP2 SUB PUSH1 0x0 DUP4 ADD MSTORE PUSH2 0xC4E DUP2 PUSH2 0xC12 JUMP JUMPDEST SWAP1 POP SWAP2 SWAP1 POP JUMP JUMPDEST PUSH32 0x546865726520617265206E6F7420656E6F75676820646F6E75747320746F2070 PUSH1 0x0 DUP3 ADD MSTORE PUSH32 0x757263686173652E000000000000000000000000000000000000000000000000 PUSH1 0x20 DUP3 ADD MSTORE POP JUMP JUMPDEST PUSH1 0x0 PUSH2 0xCB1 PUSH1 0x28 DUP4 PUSH2 0x96D JUMP JUMPDEST SWAP2 POP PUSH2 0xCBC DUP3 PUSH2 0xC55 JUMP JUMPDEST PUSH1 0x40 DUP3 ADD SWAP1 POP SWAP2 SWAP1 POP JUMP JUMPDEST PUSH1 0x0 PUSH1 0x20 DUP3 ADD SWAP1 POP DUP2 DUP2 SUB PUSH1 0x0 DUP4 ADD MSTORE PUSH2 0xCE0 DUP2 PUSH2 0xCA4 JUMP JUMPDEST SWAP1 POP SWAP2 SWAP1 POP JUMP JUMPDEST PUSH1 0x0 PUSH2 0xCF2 DUP3 PUSH2 0x828 JUMP JUMPDEST SWAP2 POP PUSH2 0xCFD DUP4 PUSH2 0x828 JUMP JUMPDEST SWAP3 POP DUP3 DUP3 SUB SWAP1 POP PUSH1 0xFF DUP2 GT ISZERO PUSH2 0xD16 JUMPI PUSH2 0xD15 PUSH2 0xA7C JUMP JUMPDEST JUMPDEST SWAP3 SWAP2 POP POP JUMP JUMPDEST PUSH1 0x0 DUP2 SWAP1 POP SWAP3 SWAP2 POP POP JUMP JUMPDEST POP JUMP JUMPDEST PUSH1 0x0 PUSH2 0xD37 PUSH1 0x0 DUP4 PUSH2 0xD1C JUMP JUMPDEST SWAP2 POP PUSH2 0xD42 DUP3 PUSH2 0xD27 JUMP JUMPDEST PUSH1 0x0 DUP3 ADD SWAP1 POP SWAP2 SWAP1 POP JUMP JUMPDEST PUSH1 0x0 PUSH2 0xD58 DUP3 PUSH2 0xD2A JUMP JUMPDEST SWAP2 POP DUP2 SWAP1 POP SWAP2 SWAP1 POP JUMP JUMPDEST PUSH32 0x5472616E73666572206661696C65642E00000000000000000000000000000000 PUSH1 0x0 DUP3 ADD MSTORE POP JUMP JUMPDEST PUSH1 0x0 PUSH2 0xD98 PUSH1 0x10 DUP4 PUSH2 0x96D JUMP JUMPDEST SWAP2 POP PUSH2 0xDA3 DUP3 PUSH2 0xD62 JUMP JUMPDEST PUSH1 0x20 DUP3 ADD SWAP1 POP SWAP2 SWAP1 POP JUMP JUMPDEST PUSH1 0x0 PUSH1 0x20 DUP3 ADD SWAP1 POP DUP2 DUP2 SUB PUSH1 0x0 DUP4 ADD MSTORE PUSH2 0xDC7 DUP2 PUSH2 0xD8B JUMP JUMPDEST SWAP1 POP SWAP2 SWAP1 POP JUMP INVALID LOG2 PUSH5 0x6970667358 0x22 SLT KECCAK256 0x2F MSTORE8 CHAINID BYTE 0xF9 PUSH31 0x28660B6905EE38761F208C6A1C2751E3D0E3EE263C6A03D8F21E64736F6C63 NUMBER STOP ADDMOD SLT STOP CALLER "
		},
		"gasEstimates": {
			"creation": {
				"codeDepositCost": "717600",
				"executionCost": "49375",
				"totalCost": "766975"
			},
			"external": {
				"donutBalances(address)": "2889",
				"getBalance()": "7247",
				"getDonutPrice()": "337",
				"getVendingMachineDonatBalance()": "2613",
				"owner()": "2533",
				"purchaseDonut(uint8)": "infinite",
				"restock(uint8)": "infinite"
			}
		},
		"methodIdentifiers": {
			"donutBalances(address)": "9a020d8a",
			"getBalance()": "12065fe0",
			"getDonutPrice()": "5cfe64d9",
			"getVendingMachineDonatBalance()": "2c858e36",
			"owner()": "8da5cb5b",
			"purchaseDonut(uint8)": "d635e369",
			"restock(uint8)": "16d68974"
		}
	},
	"abi": [
		{
			"inputs": [],
			"stateMutability": "nonpayable",
			"type": "constructor"
		},
		{
			"anonymous": false,
			"inputs": [
				{
					"indexed": true,
					"internalType": "address",
					"name": "_buyerAddress",
					"type": "address"
				},
				{
					"indexed": false,
					"internalType": "uint8",
					"name": "_amountOfDonuts",
					"type": "uint8"
				}
			],
			"name": "DonutPurchased",
			"type": "event"
		},
		{
			"anonymous": false,
			"inputs": [
				{
					"indexed": false,
					"internalType": "uint8",
					"name": "_amountOfDonutAdded",
					"type": "uint8"
				}
			],
			"name": "VendingMachineRestocked",
			"type": "event"
		},
		{
			"inputs": [
				{
					"internalType": "address",
					"name": "",
					"type": "address"
				}
			],
			"name": "donutBalances",
			"outputs": [
				{
					"internalType": "uint8",
					"name": "",
					"type": "uint8"
				}
			],
			"stateMutability": "view",
			"type": "function"
		},
		{
			"inputs": [],
			"name": "getBalance",
			"outputs": [
				{
					"internalType": "uint256",
					"name": "",
					"type": "uint256"
				}
			],
			"stateMutability": "view",
			"type": "function"
		},
		{
			"inputs": [],
			"name": "getDonutPrice",
			"outputs": [
				{
					"internalType": "uint256",
					"name": "",
					"type": "uint256"
				}
			],
			"stateMutability": "pure",
			"type": "function"
		},
		{
			"inputs": [],
			"name": "getVendingMachineDonatBalance",
			"outputs": [
				{
					"internalType": "uint8",
					"name": "",
					"type": "uint8"
				}
			],
			"stateMutability": "view",
			"type": "function"
		},
		{
			"inputs": [],
			"name": "owner",
			"outputs": [
				{
					"internalType": "address",
					"name": "",
					"type": "address"
				}
			],
			"stateMutability": "view",
			"type": "function"
		},
		{
			"inputs": [
				{
					"internalType": "uint8",
					"name": "_amount",
					"type": "uint8"
				}
			],
			"name": "purchaseDonut",
			"outputs": [],
			"stateMutability": "payable",
			"type": "function"
		},
		{
			"inputs": [
				{
					"internalType": "uint8",
					"name": "_amount",
					"type": "uint8"
				}
			],
			"name": "restock",
			"outputs": [],
			"stateMutability": "nonpayable",
			"type": "function"
		}
	]
}